{
    "contractName": "TimeCapsuleKIP17Token",
    "abi": [
        {
            "inputs": [
                {
                    "internalType": "string",
                    "name": "name",
                    "type": "string"
                },
                {
                    "internalType": "string",
                    "name": "symbol",
                    "type": "string"
                }
            ],
            "stateMutability": "nonpayable",
            "type": "constructor"
        },
        {
            "anonymous": false,
            "inputs": [
                {
                    "indexed": true,
                    "internalType": "address",
                    "name": "owner",
                    "type": "address"
                },
                {
                    "indexed": true,
                    "internalType": "address",
                    "name": "approved",
                    "type": "address"
                },
                {
                    "indexed": true,
                    "internalType": "uint256",
                    "name": "tokenId",
                    "type": "uint256"
                }
            ],
            "name": "Approval",
            "type": "event"
        },
        {
            "anonymous": false,
            "inputs": [
                {
                    "indexed": true,
                    "internalType": "address",
                    "name": "owner",
                    "type": "address"
                },
                {
                    "indexed": true,
                    "internalType": "address",
                    "name": "operator",
                    "type": "address"
                },
                {
                    "indexed": false,
                    "internalType": "bool",
                    "name": "approved",
                    "type": "bool"
                }
            ],
            "name": "ApprovalForAll",
            "type": "event"
        },
        {
            "anonymous": false,
            "inputs": [
                {
                    "indexed": false,
                    "internalType": "address",
                    "name": "account",
                    "type": "address"
                }
            ],
            "name": "Paused",
            "type": "event"
        },
        {
            "anonymous": false,
            "inputs": [
                {
                    "indexed": true,
                    "internalType": "bytes32",
                    "name": "role",
                    "type": "bytes32"
                },
                {
                    "indexed": true,
                    "internalType": "bytes32",
                    "name": "previousAdminRole",
                    "type": "bytes32"
                },
                {
                    "indexed": true,
                    "internalType": "bytes32",
                    "name": "newAdminRole",
                    "type": "bytes32"
                }
            ],
            "name": "RoleAdminChanged",
            "type": "event"
        },
        {
            "anonymous": false,
            "inputs": [
                {
                    "indexed": true,
                    "internalType": "bytes32",
                    "name": "role",
                    "type": "bytes32"
                },
                {
                    "indexed": true,
                    "internalType": "address",
                    "name": "account",
                    "type": "address"
                },
                {
                    "indexed": true,
                    "internalType": "address",
                    "name": "sender",
                    "type": "address"
                }
            ],
            "name": "RoleGranted",
            "type": "event"
        },
        {
            "anonymous": false,
            "inputs": [
                {
                    "indexed": true,
                    "internalType": "bytes32",
                    "name": "role",
                    "type": "bytes32"
                },
                {
                    "indexed": true,
                    "internalType": "address",
                    "name": "account",
                    "type": "address"
                },
                {
                    "indexed": true,
                    "internalType": "address",
                    "name": "sender",
                    "type": "address"
                }
            ],
            "name": "RoleRevoked",
            "type": "event"
        },
        {
            "anonymous": false,
            "inputs": [
                {
                    "indexed": true,
                    "internalType": "address",
                    "name": "from",
                    "type": "address"
                },
                {
                    "indexed": true,
                    "internalType": "address",
                    "name": "to",
                    "type": "address"
                },
                {
                    "indexed": true,
                    "internalType": "uint256",
                    "name": "tokenId",
                    "type": "uint256"
                }
            ],
            "name": "Transfer",
            "type": "event"
        },
        {
            "anonymous": false,
            "inputs": [
                {
                    "indexed": false,
                    "internalType": "address",
                    "name": "account",
                    "type": "address"
                }
            ],
            "name": "Unpaused",
            "type": "event"
        },
        {
            "inputs": [],
            "name": "DEFAULT_ADMIN_ROLE",
            "outputs": [
                {
                    "internalType": "bytes32",
                    "name": "",
                    "type": "bytes32"
                }
            ],
            "stateMutability": "view",
            "type": "function"
        },
        {
            "inputs": [],
            "name": "MINTER_ROLE",
            "outputs": [
                {
                    "internalType": "bytes32",
                    "name": "",
                    "type": "bytes32"
                }
            ],
            "stateMutability": "view",
            "type": "function"
        },
        {
            "inputs": [],
            "name": "PAUSER_ROLE",
            "outputs": [
                {
                    "internalType": "bytes32",
                    "name": "",
                    "type": "bytes32"
                }
            ],
            "stateMutability": "view",
            "type": "function"
        },
        {
            "inputs": [
                {
                    "internalType": "address",
                    "name": "account",
                    "type": "address"
                }
            ],
            "name": "addMinter",
            "outputs": [],
            "stateMutability": "nonpayable",
            "type": "function"
        },
        {
            "inputs": [
                {
                    "internalType": "address",
                    "name": "_account",
                    "type": "address"
                }
            ],
            "name": "addPauser",
            "outputs": [],
            "stateMutability": "nonpayable",
            "type": "function"
        },
        {
            "inputs": [
                {
                    "internalType": "address",
                    "name": "to",
                    "type": "address"
                },
                {
                    "internalType": "uint256",
                    "name": "tokenId",
                    "type": "uint256"
                }
            ],
            "name": "approve",
            "outputs": [],
            "stateMutability": "nonpayable",
            "type": "function"
        },
        {
            "inputs": [
                {
                    "internalType": "address",
                    "name": "owner",
                    "type": "address"
                }
            ],
            "name": "balanceOf",
            "outputs": [
                {
                    "internalType": "uint256",
                    "name": "",
                    "type": "uint256"
                }
            ],
            "stateMutability": "view",
            "type": "function"
        },
        {
            "inputs": [
                {
                    "internalType": "uint256",
                    "name": "tokenId",
                    "type": "uint256"
                }
            ],
            "name": "burn",
            "outputs": [],
            "stateMutability": "nonpayable",
            "type": "function"
        },
        {
            "inputs": [
                {
                    "internalType": "uint256",
                    "name": "tokenId",
                    "type": "uint256"
                }
            ],
            "name": "getApproved",
            "outputs": [
                {
                    "internalType": "address",
                    "name": "",
                    "type": "address"
                }
            ],
            "stateMutability": "view",
            "type": "function"
        },
        {
            "inputs": [
                {
                    "internalType": "bytes32",
                    "name": "role",
                    "type": "bytes32"
                }
            ],
            "name": "getRoleAdmin",
            "outputs": [
                {
                    "internalType": "bytes32",
                    "name": "",
                    "type": "bytes32"
                }
            ],
            "stateMutability": "view",
            "type": "function"
        },
        {
            "inputs": [
                {
                    "internalType": "bytes32",
                    "name": "role",
                    "type": "bytes32"
                },
                {
                    "internalType": "uint256",
                    "name": "index",
                    "type": "uint256"
                }
            ],
            "name": "getRoleMember",
            "outputs": [
                {
                    "internalType": "address",
                    "name": "",
                    "type": "address"
                }
            ],
            "stateMutability": "view",
            "type": "function"
        },
        {
            "inputs": [
                {
                    "internalType": "bytes32",
                    "name": "role",
                    "type": "bytes32"
                }
            ],
            "name": "getRoleMemberCount",
            "outputs": [
                {
                    "internalType": "uint256",
                    "name": "",
                    "type": "uint256"
                }
            ],
            "stateMutability": "view",
            "type": "function"
        },
        {
            "inputs": [
                {
                    "internalType": "bytes32",
                    "name": "role",
                    "type": "bytes32"
                },
                {
                    "internalType": "address",
                    "name": "account",
                    "type": "address"
                }
            ],
            "name": "grantRole",
            "outputs": [],
            "stateMutability": "nonpayable",
            "type": "function"
        },
        {
            "inputs": [
                {
                    "internalType": "bytes32",
                    "name": "role",
                    "type": "bytes32"
                },
                {
                    "internalType": "address",
                    "name": "account",
                    "type": "address"
                }
            ],
            "name": "hasRole",
            "outputs": [
                {
                    "internalType": "bool",
                    "name": "",
                    "type": "bool"
                }
            ],
            "stateMutability": "view",
            "type": "function"
        },
        {
            "inputs": [
                {
                    "internalType": "address",
                    "name": "owner",
                    "type": "address"
                },
                {
                    "internalType": "address",
                    "name": "operator",
                    "type": "address"
                }
            ],
            "name": "isApprovedForAll",
            "outputs": [
                {
                    "internalType": "bool",
                    "name": "",
                    "type": "bool"
                }
            ],
            "stateMutability": "view",
            "type": "function"
        },
        {
            "inputs": [
                {
                    "internalType": "address",
                    "name": "account",
                    "type": "address"
                }
            ],
            "name": "isMinter",
            "outputs": [
                {
                    "internalType": "bool",
                    "name": "",
                    "type": "bool"
                }
            ],
            "stateMutability": "view",
            "type": "function"
        },
        {
            "inputs": [
                {
                    "internalType": "address",
                    "name": "_account",
                    "type": "address"
                }
            ],
            "name": "isPauser",
            "outputs": [
                {
                    "internalType": "bool",
                    "name": "",
                    "type": "bool"
                }
            ],
            "stateMutability": "view",
            "type": "function"
        },
        {
            "inputs": [
                {
                    "internalType": "address",
                    "name": "to",
                    "type": "address"
                },
                {
                    "internalType": "uint256",
                    "name": "tokenId",
                    "type": "uint256"
                },
                {
                    "internalType": "string",
                    "name": "_tokenURI",
                    "type": "string"
                }
            ],
            "name": "mintWithTokenURI",
            "outputs": [
                {
                    "internalType": "bool",
                    "name": "",
                    "type": "bool"
                }
            ],
            "stateMutability": "nonpayable",
            "type": "function"
        },
        {
            "inputs": [
                {
                    "internalType": "address",
                    "name": "to",
                    "type": "address"
                },
                {
                    "internalType": "uint256",
                    "name": "tokenId",
                    "type": "uint256"
                },
                {
                    "internalType": "string",
                    "name": "_tokenURI",
                    "type": "string"
                },
                {
                    "internalType": "string",
                    "name": "revealedURI",
                    "type": "string"
                },
                {
                    "internalType": "uint256",
                    "name": "revealableAt",
                    "type": "uint256"
                }
            ],
            "name": "mintWithTokenURIAndRevealInfo",
            "outputs": [
                {
                    "internalType": "bool",
                    "name": "",
                    "type": "bool"
                }
            ],
            "stateMutability": "nonpayable",
            "type": "function"
        },
        {
            "inputs": [],
            "name": "name",
            "outputs": [
                {
                    "internalType": "string",
                    "name": "",
                    "type": "string"
                }
            ],
            "stateMutability": "view",
            "type": "function"
        },
        {
            "inputs": [
                {
                    "internalType": "uint256",
                    "name": "tokenId",
                    "type": "uint256"
                }
            ],
            "name": "ownerOf",
            "outputs": [
                {
                    "internalType": "address",
                    "name": "",
                    "type": "address"
                }
            ],
            "stateMutability": "view",
            "type": "function"
        },
        {
            "inputs": [],
            "name": "pause",
            "outputs": [],
            "stateMutability": "nonpayable",
            "type": "function"
        },
        {
            "inputs": [],
            "name": "paused",
            "outputs": [
                {
                    "internalType": "bool",
                    "name": "",
                    "type": "bool"
                }
            ],
            "stateMutability": "view",
            "type": "function"
        },
        {
            "inputs": [],
            "name": "renounceMinter",
            "outputs": [],
            "stateMutability": "nonpayable",
            "type": "function"
        },
        {
            "inputs": [],
            "name": "renouncePauser",
            "outputs": [],
            "stateMutability": "nonpayable",
            "type": "function"
        },
        {
            "inputs": [
                {
                    "internalType": "bytes32",
                    "name": "role",
                    "type": "bytes32"
                },
                {
                    "internalType": "address",
                    "name": "account",
                    "type": "address"
                }
            ],
            "name": "renounceRole",
            "outputs": [],
            "stateMutability": "nonpayable",
            "type": "function"
        },
        {
            "inputs": [
                {
                    "internalType": "uint256",
                    "name": "tokenId",
                    "type": "uint256"
                }
            ],
            "name": "reveal",
            "outputs": [
                {
                    "internalType": "string",
                    "name": "",
                    "type": "string"
                }
            ],
            "stateMutability": "nonpayable",
            "type": "function"
        },
        {
            "inputs": [
                {
                    "internalType": "bytes32",
                    "name": "role",
                    "type": "bytes32"
                },
                {
                    "internalType": "address",
                    "name": "account",
                    "type": "address"
                }
            ],
            "name": "revokeRole",
            "outputs": [],
            "stateMutability": "nonpayable",
            "type": "function"
        },
        {
            "inputs": [
                {
                    "internalType": "address",
                    "name": "from",
                    "type": "address"
                },
                {
                    "internalType": "address",
                    "name": "to",
                    "type": "address"
                },
                {
                    "internalType": "uint256",
                    "name": "tokenId",
                    "type": "uint256"
                }
            ],
            "name": "safeTransferFrom",
            "outputs": [],
            "stateMutability": "nonpayable",
            "type": "function"
        },
        {
            "inputs": [
                {
                    "internalType": "address",
                    "name": "from",
                    "type": "address"
                },
                {
                    "internalType": "address",
                    "name": "to",
                    "type": "address"
                },
                {
                    "internalType": "uint256",
                    "name": "tokenId",
                    "type": "uint256"
                },
                {
                    "internalType": "bytes",
                    "name": "_data",
                    "type": "bytes"
                }
            ],
            "name": "safeTransferFrom",
            "outputs": [],
            "stateMutability": "nonpayable",
            "type": "function"
        },
        {
            "inputs": [
                {
                    "internalType": "address",
                    "name": "operator",
                    "type": "address"
                },
                {
                    "internalType": "bool",
                    "name": "approved",
                    "type": "bool"
                }
            ],
            "name": "setApprovalForAll",
            "outputs": [],
            "stateMutability": "nonpayable",
            "type": "function"
        },
        {
            "inputs": [
                {
                    "internalType": "bytes4",
                    "name": "interfaceId",
                    "type": "bytes4"
                }
            ],
            "name": "supportsInterface",
            "outputs": [
                {
                    "internalType": "bool",
                    "name": "",
                    "type": "bool"
                }
            ],
            "stateMutability": "view",
            "type": "function"
        },
        {
            "inputs": [],
            "name": "symbol",
            "outputs": [
                {
                    "internalType": "string",
                    "name": "",
                    "type": "string"
                }
            ],
            "stateMutability": "view",
            "type": "function"
        },
        {
            "inputs": [
                {
                    "internalType": "uint256",
                    "name": "index",
                    "type": "uint256"
                }
            ],
            "name": "tokenByIndex",
            "outputs": [
                {
                    "internalType": "uint256",
                    "name": "",
                    "type": "uint256"
                }
            ],
            "stateMutability": "view",
            "type": "function"
        },
        {
            "inputs": [
                {
                    "internalType": "address",
                    "name": "owner",
                    "type": "address"
                },
                {
                    "internalType": "uint256",
                    "name": "index",
                    "type": "uint256"
                }
            ],
            "name": "tokenOfOwnerByIndex",
            "outputs": [
                {
                    "internalType": "uint256",
                    "name": "",
                    "type": "uint256"
                }
            ],
            "stateMutability": "view",
            "type": "function"
        },
        {
            "inputs": [
                {
                    "internalType": "uint256",
                    "name": "tokenId",
                    "type": "uint256"
                }
            ],
            "name": "tokenURI",
            "outputs": [
                {
                    "internalType": "string",
                    "name": "",
                    "type": "string"
                }
            ],
            "stateMutability": "view",
            "type": "function"
        },
        {
            "inputs": [],
            "name": "totalSupply",
            "outputs": [
                {
                    "internalType": "uint256",
                    "name": "",
                    "type": "uint256"
                }
            ],
            "stateMutability": "view",
            "type": "function"
        },
        {
            "inputs": [
                {
                    "internalType": "address",
                    "name": "from",
                    "type": "address"
                },
                {
                    "internalType": "address",
                    "name": "to",
                    "type": "address"
                },
                {
                    "internalType": "uint256",
                    "name": "tokenId",
                    "type": "uint256"
                }
            ],
            "name": "transferFrom",
            "outputs": [],
            "stateMutability": "nonpayable",
            "type": "function"
        },
        {
            "inputs": [],
            "name": "unpause",
            "outputs": [],
            "stateMutability": "nonpayable",
            "type": "function"
        }
    ],
    "bytecode": "60806040523480156200001157600080fd5b50604051620034cc380380620034cc833981016040819052620000349162000303565b81816000620000448382620003fb565b506001620000538282620003fb565b50506007805460ff19169055506200006d600033620000cd565b620000997f879d41736c42986c020ca99e1e88db6c24a0b4923eb26f2115159827a9ccb72e33620000cd565b620000c57f3da911522173425ad77c4d334b95579cbb700456fef38bcc10dbcfbae688c2bc33620000cd565b5050620004c7565b620000d98282620000dd565b5050565b620000f482826200012060201b62000ffa1760201c565b60008281526009602090815260409091206200011b91839062001080620001c4821b17901c565b505050565b60008281526008602090815260408083206001600160a01b038516845290915290205460ff16620000d95760008281526008602090815260408083206001600160a01b03851684529091529020805460ff19166001179055620001803390565b6001600160a01b0316816001600160a01b0316837f2f8788117e7eff1d82e926ec794901d17c78024a50270940304540a733656f0d60405160405180910390a45050565b6000620001db836001600160a01b038416620001e4565b90505b92915050565b60008181526001830160205260408120546200022d57508154600181810184556000848152602080822090930184905584548482528286019093526040902091909155620001de565b506000620001de565b634e487b7160e01b600052604160045260246000fd5b600082601f8301126200025e57600080fd5b81516001600160401b03808211156200027b576200027b62000236565b604051601f8301601f19908116603f01168101908282118183101715620002a657620002a662000236565b81604052838152602092508683858801011115620002c357600080fd5b600091505b83821015620002e75785820183015181830184015290820190620002c8565b83821115620002f95760008385830101525b9695505050505050565b600080604083850312156200031757600080fd5b82516001600160401b03808211156200032f57600080fd5b6200033d868387016200024c565b935060208501519150808211156200035457600080fd5b5062000363858286016200024c565b9150509250929050565b600181811c908216806200038257607f821691505b602082108103620003a357634e487b7160e01b600052602260045260246000fd5b50919050565b601f8211156200011b57600081815260208120601f850160051c81016020861015620003d25750805b601f850160051c820191505b81811015620003f357828155600101620003de565b505050505050565b81516001600160401b0381111562000417576200041762000236565b6200042f816200042884546200036d565b84620003a9565b602080601f8311600181146200046757600084156200044e5750858301515b600019600386901b1c1916600185901b178555620003f3565b600085815260208120601f198616915b82811015620004985788860151825594840194600190910190840162000477565b5085821015620004b75787850151600019600388901b60f8161c191681555b5050505050600190811b01905550565b612ff580620004d76000396000f3fe608060405234801561001057600080fd5b506004361061023d5760003560e01c806370a082311161013b578063a5892821116100b8578063ca15c8731161007c578063ca15c873146104bb578063d5391393146104ce578063d547741f146104e3578063e63ab1e9146104f6578063e985e9c51461050b57600080fd5b8063a58928211461045c578063aa271e1a1461046f578063b88d4fde14610482578063c2ca0ac514610495578063c87b56dd146104a857600080fd5b806395d89b41116100ff57806395d89b411461041e578063983b2d56146104265780639865027514610439578063a217fddf14610441578063a22cb4651461044957600080fd5b806370a08231146103ca57806382dc1ec4146103dd5780638456cb59146103f05780639010d07c146103f857806391d148541461040b57600080fd5b806336568abe116101c95780634f6ccce71161018d5780634f6ccce71461038157806350bb4e7f146103945780635c975abb146103a75780636352211e146103af5780636ef8d66d146103c257600080fd5b806336568abe1461032d5780633f4ba83a1461034057806342842e0e1461034857806342966c681461035b57806346fbf68e1461036e57600080fd5b806318160ddd1161021057806318160ddd146102bf57806323b872dd146102d1578063248a9ca3146102e45780632f2ff15d146103075780632f745c591461031a57600080fd5b806301ffc9a71461024257806306fdde031461026a578063081812fc1461027f578063095ea7b3146102aa575b600080fd5b610255610250366004612744565b610547565b60405190151581526020015b60405180910390f35b610272610558565b60405161026191906127b9565b61029261028d3660046127cc565b6105ea565b6040516001600160a01b039091168152602001610261565b6102bd6102b83660046127fc565b610676565b005b600c545b604051908152602001610261565b6102bd6102df366004612826565b610781565b6102c36102f23660046127cc565b60009081526008602052604090206001015490565b6102bd610315366004612862565b6107b3565b6102c36103283660046127fc565b6107d8565b6102bd61033b366004612862565b61086d565b6102bd6108eb565b6102bd610356366004612826565b610971565b6102bd6103693660046127cc565b61098c565b61025561037c36600461288e565b610a06565b6102c361038f3660046127cc565b610a20565b6102556103a2366004612955565b610ab2565b610255610aeb565b6102926103bd3660046127cc565b610afe565b6102bd610b74565b6102c36103d836600461288e565b610b8c565b6102bd6103eb36600461288e565b610c11565b6102bd610c34565b6102926104063660046129ac565b610cb6565b610255610419366004612862565b610cd5565b610272610d00565b6102bd61043436600461288e565b610d0f565b6102bd610d32565b6102c3600081565b6102bd6104573660046129ce565b610d4a565b61025561046a366004612a0a565b610d55565b61025561047d36600461288e565b610da4565b6102bd610490366004612a90565b610dbe565b6102726104a33660046127cc565b610df6565b6102726104b63660046127cc565b610f75565b6102c36104c93660046127cc565b610fbe565b6102c3600080516020612f8083398151915281565b6102bd6104f1366004612862565b610fd5565b6102c3600080516020612fa083398151915281565b610255610519366004612b0c565b6001600160a01b03918216600090815260056020908152604080832093909416825291909152205460ff1690565b600061055282611095565b92915050565b60606000805461056790612b36565b80601f016020809104026020016040519081016040528092919081815260200182805461059390612b36565b80156105e05780601f106105b5576101008083540402835291602001916105e0565b820191906000526020600020905b8154815290600101906020018083116105c357829003601f168201915b5050505050905090565b60006105f5826110c9565b61065a5760405162461bcd60e51b815260206004820152602b60248201527f4b495031373a20617070726f76656420717565727920666f72206e6f6e65786960448201526a39ba32b73a103a37b5b2b760a91b60648201526084015b60405180910390fd5b506000908152600460205260409020546001600160a01b031690565b600061068182610afe565b9050806001600160a01b0316836001600160a01b0316036106e45760405162461bcd60e51b815260206004820181905260248201527f4b495031373a20617070726f76616c20746f2063757272656e74206f776e65726044820152606401610651565b336001600160a01b038216148061070057506107008133610519565b6107725760405162461bcd60e51b815260206004820152603760248201527f4b495031373a20617070726f76652063616c6c6572206973206e6f74206f776e60448201527f6572206e6f7220617070726f76656420666f7220616c6c0000000000000000006064820152608401610651565b61077c83836110e6565b505050565b61078c335b82611154565b6107a85760405162461bcd60e51b815260040161065190612b70565b61077c83838361123d565b6000828152600860205260409020600101546107ce816113e2565b61077c83836113ec565b60006107e383610b8c565b82106108445760405162461bcd60e51b815260206004820152602a60248201527f4b49503137456e756d657261626c653a206f776e657220696e646578206f7574604482015269206f6620626f756e647360b01b6064820152608401610651565b506001600160a01b03919091166000908152600a60209081526040808320938352929052205490565b6001600160a01b03811633146108dd5760405162461bcd60e51b815260206004820152602f60248201527f416363657373436f6e74726f6c3a2063616e206f6e6c792072656e6f756e636560448201526e103937b632b9903337b91039b2b63360891b6064820152608401610651565b6108e7828261140e565b5050565b610903600080516020612fa083398151915233610cd5565b6109675760405162461bcd60e51b815260206004820152602f60248201527f4b495031375061757361626c653a206d7573742068617665207061757365722060448201526e726f6c6520746f20756e706175736560881b6064820152608401610651565b61096f611430565b565b61077c83838360405180602001604052806000815250610dbe565b61099533610786565b6109fa5760405162461bcd60e51b815260206004820152603060248201527f4552433732314275726e61626c653a2063616c6c6572206973206e6f74206f7760448201526f1b995c881b9bdc88185c1c1c9bdd995960821b6064820152608401610651565b610a03816114c5565b50565b6000610552600080516020612fa083398151915283610cd5565b6000610a2b600c5490565b8210610a8d5760405162461bcd60e51b815260206004820152602b60248201527f4b49503137456e756d657261626c653a20676c6f62616c20696e646578206f7560448201526a74206f6620626f756e647360a81b6064820152608401610651565b600c8281548110610aa057610aa0612bc0565b90600052602060002001549050919050565b6000600080516020612f80833981519152610acc816113e2565b610ad6858561152a565b610ae08484611544565b506001949350505050565b6000610af960075460ff1690565b905090565b6000818152600260205260408120546001600160a01b0316806105525760405162461bcd60e51b815260206004820152602860248201527f4b495031373a206f776e657220717565727920666f72206e6f6e657869737465604482015267373a103a37b5b2b760c11b6064820152608401610651565b61096f600080516020612fa08339815191523361086d565b60006001600160a01b038216610bf55760405162461bcd60e51b815260206004820152602860248201527f4b495031373a2061646472657373207a65726f206973206e6f7420612076616c60448201526734b21037bbb732b960c11b6064820152608401610651565b506001600160a01b031660009081526003602052604090205490565b6000610c1c816113e2565b6108e7600080516020612fa0833981519152836107b3565b610c4c600080516020612fa083398151915233610cd5565b610cae5760405162461bcd60e51b815260206004820152602d60248201527f4b495031375061757361626c653a206d7573742068617665207061757365722060448201526c726f6c6520746f20706175736560981b6064820152608401610651565b61096f6115c7565b6000828152600960205260408120610cce9083611644565b9392505050565b60009182526008602090815260408084206001600160a01b0393909316845291905290205460ff1690565b60606001805461056790612b36565b6000610d1a816113e2565b6108e7600080516020612f80833981519152836107b3565b61096f600080516020612f808339815191523361086d565b6108e7338383611650565b6000600080516020612f80833981519152610d6f816113e2565b610d79878761152a565b610d838686611544565b610d8d868561171e565b610d9786846117a8565b5060019695505050505050565b6000610552600080516020612f8083398151915283610cd5565b610dc83383611154565b610de45760405162461bcd60e51b815260040161065190612b70565b610df08484848461182b565b50505050565b6060610e023383611154565b610e645760405162461bcd60e51b815260206004820152602d60248201527f4b4950313752657665616c3a2063616c6c6572206973206e6f74206f776e657260448201526c081b9bdc88185c1c1c9bdd9959609a1b6064820152608401610651565b610e70426103e8612bec565b6000838152600f602052604090205410610ecc5760405162461bcd60e51b815260206004820152601e60248201527f4b4950313752657665616c3a2063616e6e6f742072657665616c2079657400006044820152606401610651565b610ed78260006117a8565b6000828152600e602052604090208054610ef090612b36565b80601f0160208091040260200160405190810160405280929190818152602001828054610f1c90612b36565b8015610f695780601f10610f3e57610100808354040283529160200191610f69565b820191906000526020600020905b815481529060010190602001808311610f4c57829003601f168201915b50505050509050919050565b6060610f80826110c9565b610f9c5760405162461bcd60e51b815260040161065190612c0b565b6000828152600f602052604090205415610ed75761055282611870565b919050565b6000818152600960205260408120610552906119dd565b600082815260086020526040902060010154610ff0816113e2565b61077c838361140e565b6110048282610cd5565b6108e75760008281526008602090815260408083206001600160a01b03851684529091529020805460ff1916600117905561103c3390565b6001600160a01b0316816001600160a01b0316837f2f8788117e7eff1d82e926ec794901d17c78024a50270940304540a733656f0d60405160405180910390a45050565b6000610cce836001600160a01b0384166119e7565b60006001600160e01b03198216634d5507ff60e01b14806110ba57506110ba82611a36565b80610552575061055282611a76565b6000908152600260205260409020546001600160a01b0316151590565b600081815260046020526040902080546001600160a01b0319166001600160a01b038416908117909155819061111b82610afe565b6001600160a01b03167f8c5be1e5ebec7d5bd14f71427d1e84f3dd0314c0f7b2291e5b200ac8c7c3b92560405160405180910390a45050565b600061115f826110c9565b6111bf5760405162461bcd60e51b815260206004820152602b60248201527f4b495031373a206f70657261746f7220717565727920666f72206e6f6e65786960448201526a39ba32b73a103a37b5b2b760a91b6064820152608401610651565b60006111ca83610afe565b9050806001600160a01b0316846001600160a01b0316148061121157506001600160a01b0380821660009081526005602090815260408083209388168352929052205460ff165b806112355750836001600160a01b031661122a846105ea565b6001600160a01b0316145b949350505050565b826001600160a01b031661125082610afe565b6001600160a01b0316146112b25760405162461bcd60e51b8152602060048201526024808201527f4b495031373a207472616e736665722066726f6d20696e636f7272656374206f6044820152633bb732b960e11b6064820152608401610651565b6001600160a01b0382166113145760405162461bcd60e51b815260206004820152602360248201527f4b495031373a207472616e7366657220746f20746865207a65726f206164647260448201526265737360e81b6064820152608401610651565b61131f838383611a9b565b61132a6000826110e6565b6001600160a01b0383166000908152600360205260408120805460019290611353908490612c59565b90915550506001600160a01b0382166000908152600360205260408120805460019290611381908490612c70565b909155505060008181526002602052604080822080546001600160a01b0319166001600160a01b0386811691821790925591518493918716917fddf252ad1be2c89b69c2b068fc378daa952ba7f163c4a11628f55a4df523b3ef91a4505050565b610a038133611aa6565b6113f68282610ffa565b600082815260096020526040902061077c9082611080565b6114188282611b0a565b600082815260096020526040902061077c9082611b71565b611438610aeb565b61147b5760405162461bcd60e51b815260206004820152601460248201527314185d5cd8589b194e881b9bdd081c185d5cd95960621b6044820152606401610651565b6007805460ff191690557f5db9ee0a495bf2e6ff9c91a7834c1ba4fdd244a5e8aa4e537bd38aeae4b073aa335b6040516001600160a01b03909116815260200160405180910390a1565b6114ce81611b86565b6000818152600e6020526040902080546114e790612b36565b159050611505576000818152600e60205260408120611505916126e0565b6000818152600f602052604090205415610a03576000908152600f6020526040812055565b6108e7828260405180602001604052806000815250611bc6565b61154d826110c9565b6115af5760405162461bcd60e51b815260206004820152602d60248201527f4b4950313755524953746f726167653a2055524920736574206f66206e6f6e6560448201526c3c34b9ba32b73a103a37b5b2b760991b6064820152608401610651565b600082815260066020526040902061077c8282612cd6565b6115cf610aeb565b1561160f5760405162461bcd60e51b815260206004820152601060248201526f14185d5cd8589b194e881c185d5cd95960821b6044820152606401610651565b6007805460ff191660011790557f62e78cea01bee320cd4e420270b5ea74000d11b0c9f74754ebdbfc544b05a2586114a83390565b6000610cce8383611c0c565b816001600160a01b0316836001600160a01b0316036116b15760405162461bcd60e51b815260206004820152601860248201527f4b495031373a20617070726f766520746f2063616c6c657200000000000000006044820152606401610651565b6001600160a01b03838116600081815260056020908152604080832094871680845294825291829020805460ff191686151590811790915591519182527f17307eab39ab6107e8899845ad3d59bd9653f200f220920489ca2b5937696c31910160405180910390a3505050565b611727826110c9565b6117905760405162461bcd60e51b815260206004820152603460248201527f4b495031374d657461646174613a2052657665616c656420555249207365742060448201527337b3103737b732bc34b9ba32b73a103a37b5b2b760611b6064820152608401610651565b6000828152600e6020526040902061077c8282612cd6565b6117b1826110c9565b6118195760405162461bcd60e51b815260206004820152603360248201527f4b495031374d657461646174613a2052657665616c204461746520736574206f60448201527233103737b732bc34b9ba32b73a103a37b5b2b760691b6064820152608401610651565b6000918252600f602052604090912055565b61183684848461123d565b61184284848484611c36565b80611854575061185484848484611d1e565b610df05760405162461bcd60e51b815260040161065190612d96565b606061187b826110c9565b6118e05760405162461bcd60e51b815260206004820152603060248201527f4b4950313755524953746f726167653a2055524920717565727920666f72206e60448201526f37b732bc34b9ba32b73a103a37b5b2b760811b6064820152608401610651565b600082815260066020526040812080546118f990612b36565b80601f016020809104026020016040519081016040528092919081815260200182805461192590612b36565b80156119725780601f1061194757610100808354040283529160200191611972565b820191906000526020600020905b81548152906001019060200180831161195557829003601f168201915b50505050509050600061199060408051602081019091526000815290565b905080516000036119a2575092915050565b8151156119d45780826040516020016119bc929190612dfd565b60405160208183030381529060405292505050919050565b61123584611de5565b6000610552825490565b6000818152600183016020526040812054611a2e57508154600181810184556000848152602080822090930184905584548482528286019093526040902091909155610552565b506000610552565b60006001600160e01b031982166380ac58cd60e01b1480611a6757506001600160e01b03198216635b5e139f60e01b145b80610552575061055282611e74565b60006001600160e01b03198216635a05180f60e01b1480610552575061055282611e8a565b61077c838383611eaf565b611ab08282610cd5565b6108e757611ac8816001600160a01b03166014611f22565b611ad3836020611f22565b604051602001611ae4929190612e2c565b60408051601f198184030181529082905262461bcd60e51b8252610651916004016127b9565b611b148282610cd5565b156108e75760008281526008602090815260408083206001600160a01b0385168085529252808320805460ff1916905551339285917ff6391f5c32d9c69d2a47ea670b442974b53935d1edc7fd64eb21e047a839171b9190a45050565b6000610cce836001600160a01b0384166120be565b611b8f816121b1565b60008181526006602052604090208054611ba890612b36565b159050610a03576000818152600660205260408120610a03916126e0565b611bd08383612258565b611bdd6000848484611c36565b80611bf05750611bf06000848484611d1e565b61077c5760405162461bcd60e51b815260040161065190612d96565b6000826000018281548110611c2357611c23612bc0565b9060005260206000200154905092915050565b60006001600160a01b0384163b15610ae057604051636745782b60e01b81526001600160a01b03851690636745782b90611c7a903390899088908890600401612ea1565b6020604051808303816000875af1925050508015611cb5575060408051601f3d908101601f19168201909252611cb291810190612ede565b60015b611d04573d808015611ce3576040519150601f19603f3d011682016040523d82523d6000602084013e611ce8565b606091505b508051600003611cfc576000915050611235565b805181602001fd5b6001600160e01b031916636745782b60e01b149050611235565b60006001600160a01b0384163b15610ae057604051630a85bd0160e11b81526001600160a01b0385169063150b7a0290611d62903390899088908890600401612ea1565b6020604051808303816000875af1925050508015611d9d575060408051601f3d908101601f19168201909252611d9a91810190612ede565b60015b611dcb573d808015611ce3576040519150601f19603f3d011682016040523d82523d6000602084013e611ce8565b6001600160e01b031916630a85bd0160e11b149050611235565b6060611df0826110c9565b611e0c5760405162461bcd60e51b815260040161065190612c0b565b6000611e2360408051602081019091526000815290565b90506000815111611e435760405180602001604052806000815250610cce565b80611e4d84612397565b604051602001611e5e929190612dfd565b6040516020818303038152906040529392505050565b6001600160e01b0319166301ffc9a760e01b1490565b60006001600160e01b03198216637965db0b60e01b1480610552575061055282611e74565b611eba838383612498565b611ec2610aeb565b1561077c5760405162461bcd60e51b815260206004820152602a60248201527f4b495031375061757361626c653a20746f6b656e207472616e736665722077686044820152691a5b19481c185d5cd95960b21b6064820152608401610651565b60606000611f31836002612bec565b611f3c906002612c70565b67ffffffffffffffff811115611f5457611f546128a9565b6040519080825280601f01601f191660200182016040528015611f7e576020820181803683370190505b509050600360fc1b81600081518110611f9957611f99612bc0565b60200101906001600160f81b031916908160001a905350600f60fb1b81600181518110611fc857611fc8612bc0565b60200101906001600160f81b031916908160001a9053506000611fec846002612bec565b611ff7906001612c70565b90505b600181111561206f576f181899199a1a9b1b9c1cb0b131b232b360811b85600f166010811061202b5761202b612bc0565b1a60f81b82828151811061204157612041612bc0565b60200101906001600160f81b031916908160001a90535060049490941c9361206881612efb565b9050611ffa565b508315610cce5760405162461bcd60e51b815260206004820181905260248201527f537472696e67733a20686578206c656e67746820696e73756666696369656e746044820152606401610651565b600081815260018301602052604081205480156121a75760006120e2600183612c59565b85549091506000906120f690600190612c59565b905081811461215b57600086600001828154811061211657612116612bc0565b906000526020600020015490508087600001848154811061213957612139612bc0565b6000918252602080832090910192909255918252600188019052604090208390555b855486908061216c5761216c612f12565b600190038181906000526020600020016000905590558560010160008681526020019081526020016000206000905560019350505050610552565b6000915050610552565b60006121bc82610afe565b90506121ca81600084611a9b565b6121d56000836110e6565b6001600160a01b03811660009081526003602052604081208054600192906121fe908490612c59565b909155505060008281526002602052604080822080546001600160a01b0319169055518391906001600160a01b038416907fddf252ad1be2c89b69c2b068fc378daa952ba7f163c4a11628f55a4df523b3ef908390a45050565b6001600160a01b0382166122ae5760405162461bcd60e51b815260206004820152601f60248201527f4b495031373a206d696e7420746f20746865207a65726f2061646472657373006044820152606401610651565b6122b7816110c9565b156123045760405162461bcd60e51b815260206004820152601b60248201527f4b495031373a20746f6b656e20616c7265616479206d696e74656400000000006044820152606401610651565b61231060008383611a9b565b6001600160a01b0382166000908152600360205260408120805460019290612339908490612c70565b909155505060008181526002602052604080822080546001600160a01b0319166001600160a01b03861690811790915590518392907fddf252ad1be2c89b69c2b068fc378daa952ba7f163c4a11628f55a4df523b3ef908290a45050565b6060816000036123be5750506040805180820190915260018152600360fc1b602082015290565b8160005b81156123e857806123d281612f28565b91506123e19050600a83612f57565b91506123c2565b60008167ffffffffffffffff811115612403576124036128a9565b6040519080825280601f01601f19166020018201604052801561242d576020820181803683370190505b5090505b841561123557612442600183612c59565b915061244f600a86612f6b565b61245a906030612c70565b60f81b81838151811061246f5761246f612bc0565b60200101906001600160f81b031916908160001a905350612491600a86612f57565b9450612431565b6001600160a01b0383166124f3576124ee81600c80546000838152600d60205260408120829055600182018355919091527fdf6966c971051c3d54ec59162606531493a51404a002842f56009d7e5cf4a8c70155565b612516565b816001600160a01b0316836001600160a01b031614612516576125168382612550565b6001600160a01b03821661252d5761077c816125ed565b826001600160a01b0316826001600160a01b03161461077c5761077c828261269c565b6000600161255d84610b8c565b6125679190612c59565b6000838152600b60205260409020549091508082146125ba576001600160a01b0384166000908152600a602090815260408083208584528252808320548484528184208190558352600b90915290208190555b506000918252600b602090815260408084208490556001600160a01b039094168352600a81528383209183525290812055565b600c546000906125ff90600190612c59565b6000838152600d6020526040812054600c805493945090928490811061262757612627612bc0565b9060005260206000200154905080600c838154811061264857612648612bc0565b6000918252602080832090910192909255828152600d9091526040808220849055858252812055600c80548061268057612680612f12565b6001900381819060005260206000200160009055905550505050565b60006126a783610b8c565b6001600160a01b039093166000908152600a602090815260408083208684528252808320859055938252600b9052919091209190915550565b5080546126ec90612b36565b6000825580601f106126fc575050565b601f016020900490600052602060002090810190610a0391905b8082111561272a5760008155600101612716565b5090565b6001600160e01b031981168114610a0357600080fd5b60006020828403121561275657600080fd5b8135610cce8161272e565b60005b8381101561277c578181015183820152602001612764565b83811115610df05750506000910152565b600081518084526127a5816020860160208601612761565b601f01601f19169290920160200192915050565b602081526000610cce602083018461278d565b6000602082840312156127de57600080fd5b5035919050565b80356001600160a01b0381168114610fb957600080fd5b6000806040838503121561280f57600080fd5b612818836127e5565b946020939093013593505050565b60008060006060848603121561283b57600080fd5b612844846127e5565b9250612852602085016127e5565b9150604084013590509250925092565b6000806040838503121561287557600080fd5b82359150612885602084016127e5565b90509250929050565b6000602082840312156128a057600080fd5b610cce826127e5565b634e487b7160e01b600052604160045260246000fd5b600067ffffffffffffffff808411156128da576128da6128a9565b604051601f8501601f19908116603f01168101908282118183101715612902576129026128a9565b8160405280935085815286868601111561291b57600080fd5b858560208301376000602087830101525050509392505050565b600082601f83011261294657600080fd5b610cce838335602085016128bf565b60008060006060848603121561296a57600080fd5b612973846127e5565b925060208401359150604084013567ffffffffffffffff81111561299657600080fd5b6129a286828701612935565b9150509250925092565b600080604083850312156129bf57600080fd5b50508035926020909101359150565b600080604083850312156129e157600080fd5b6129ea836127e5565b9150602083013580151581146129ff57600080fd5b809150509250929050565b600080600080600060a08688031215612a2257600080fd5b612a2b866127e5565b945060208601359350604086013567ffffffffffffffff80821115612a4f57600080fd5b612a5b89838a01612935565b94506060880135915080821115612a7157600080fd5b50612a7e88828901612935565b95989497509295608001359392505050565b60008060008060808587031215612aa657600080fd5b612aaf856127e5565b9350612abd602086016127e5565b925060408501359150606085013567ffffffffffffffff811115612ae057600080fd5b8501601f81018713612af157600080fd5b612b00878235602084016128bf565b91505092959194509250565b60008060408385031215612b1f57600080fd5b612b28836127e5565b9150612885602084016127e5565b600181811c90821680612b4a57607f821691505b602082108103612b6a57634e487b7160e01b600052602260045260246000fd5b50919050565b60208082526030908201527f4b495031373a207472616e736665722063616c6c6572206973206e6f74206f7760408201526f1b995c881b9bdc88185c1c1c9bdd995960821b606082015260800190565b634e487b7160e01b600052603260045260246000fd5b634e487b7160e01b600052601160045260246000fd5b6000816000190483118215151615612c0657612c06612bd6565b500290565b6020808252602e908201527f4b495031374d657461646174613a2055524920717565727920666f72206e6f6e60408201526d32bc34b9ba32b73a103a37b5b2b760911b606082015260800190565b600082821015612c6b57612c6b612bd6565b500390565b60008219821115612c8357612c83612bd6565b500190565b601f82111561077c57600081815260208120601f850160051c81016020861015612caf5750805b601f850160051c820191505b81811015612cce57828155600101612cbb565b505050505050565b815167ffffffffffffffff811115612cf057612cf06128a9565b612d0481612cfe8454612b36565b84612c88565b602080601f831160018114612d395760008415612d215750858301515b600019600386901b1c1916600185901b178555612cce565b600085815260208120601f198616915b82811015612d6857888601518255948401946001909101908401612d49565b5085821015612d865787850151600019600388901b60f8161c191681555b5050505050600190811b01905550565b60208082526041908201527f4b495031373a207472616e7366657220746f206e6f6e20494b4950313752656360408201527f65697665722f49455243373231526563656976657220696d706c656d656e74656060820152603960f91b608082015260a00190565b60008351612e0f818460208801612761565b835190830190612e23818360208801612761565b01949350505050565b7f416363657373436f6e74726f6c3a206163636f756e7420000000000000000000815260008351612e64816017850160208801612761565b7001034b99036b4b9b9b4b733903937b6329607d1b6017918401918201528351612e95816028840160208801612761565b01602801949350505050565b6001600160a01b0385811682528416602082015260408101839052608060608201819052600090612ed49083018461278d565b9695505050505050565b600060208284031215612ef057600080fd5b8151610cce8161272e565b600081612f0a57612f0a612bd6565b506000190190565b634e487b7160e01b600052603160045260246000fd5b600060018201612f3a57612f3a612bd6565b5060010190565b634e487b7160e01b600052601260045260246000fd5b600082612f6657612f66612f41565b500490565b600082612f7a57612f7a612f41565b50069056fe879d41736c42986c020ca99e1e88db6c24a0b4923eb26f2115159827a9ccb72e3da911522173425ad77c4d334b95579cbb700456fef38bcc10dbcfbae688c2bca26469706673582212209216fe86396a478607dd50d45721db268afb0e8b66524760c90bd2e7d2b959eb64736f6c634300080f0033",
    "sourcePath": "/Users/jongwan/Thingsflow/klaytn-contracts/contracts/KIP/token/KIP17/TimeCapsuleKIP17.sol",
    "compiler": {
        "name": "solc",
        "version": "0.8.15+commit.e14f2714"
    },
    "functionHashes": {
        "DEFAULT_ADMIN_ROLE()": "a217fddf",
        "MINTER_ROLE()": "d5391393",
        "PAUSER_ROLE()": "e63ab1e9",
        "addMinter(address)": "983b2d56",
        "addPauser(address)": "82dc1ec4",
        "approve(address,uint256)": "095ea7b3",
        "balanceOf(address)": "70a08231",
        "burn(uint256)": "42966c68",
        "getApproved(uint256)": "081812fc",
        "getRoleAdmin(bytes32)": "248a9ca3",
        "getRoleMember(bytes32,uint256)": "9010d07c",
        "getRoleMemberCount(bytes32)": "ca15c873",
        "grantRole(bytes32,address)": "2f2ff15d",
        "hasRole(bytes32,address)": "91d14854",
        "isApprovedForAll(address,address)": "e985e9c5",
        "isMinter(address)": "aa271e1a",
        "isPauser(address)": "46fbf68e",
        "mintWithTokenURI(address,uint256,string)": "50bb4e7f",
        "mintWithTokenURIAndRevealInfo(address,uint256,string,string,uint256)": "a5892821",
        "name()": "06fdde03",
        "ownerOf(uint256)": "6352211e",
        "pause()": "8456cb59",
        "paused()": "5c975abb",
        "renounceMinter()": "98650275",
        "renouncePauser()": "6ef8d66d",
        "renounceRole(bytes32,address)": "36568abe",
        "reveal(uint256)": "c2ca0ac5",
        "revokeRole(bytes32,address)": "d547741f",
        "safeTransferFrom(address,address,uint256)": "42842e0e",
        "safeTransferFrom(address,address,uint256,bytes)": "b88d4fde",
        "setApprovalForAll(address,bool)": "a22cb465",
        "supportsInterface(bytes4)": "01ffc9a7",
        "symbol()": "95d89b41",
        "tokenByIndex(uint256)": "4f6ccce7",
        "tokenOfOwnerByIndex(address,uint256)": "2f745c59",
        "tokenURI(uint256)": "c87b56dd",
        "totalSupply()": "18160ddd",
        "transferFrom(address,address,uint256)": "23b872dd",
        "unpause()": "3f4ba83a"
    },
    "gasEstimates": {
        "creation": {
            "codeDepositCost": "2455400",
            "executionCost": "infinite",
            "totalCost": "infinite"
        },
        "external": {
            "DEFAULT_ADMIN_ROLE()": "306",
            "MINTER_ROLE()": "infinite",
            "PAUSER_ROLE()": "infinite",
            "addMinter(address)": "infinite",
            "addPauser(address)": "infinite",
            "approve(address,uint256)": "infinite",
            "balanceOf(address)": "2635",
            "burn(uint256)": "infinite",
            "getApproved(uint256)": "4822",
            "getRoleAdmin(bytes32)": "2534",
            "getRoleMember(bytes32,uint256)": "infinite",
            "getRoleMemberCount(bytes32)": "infinite",
            "grantRole(bytes32,address)": "infinite",
            "hasRole(bytes32,address)": "2788",
            "isApprovedForAll(address,address)": "infinite",
            "isMinter(address)": "infinite",
            "isPauser(address)": "infinite",
            "mintWithTokenURI(address,uint256,string)": "infinite",
            "mintWithTokenURIAndRevealInfo(address,uint256,string,string,uint256)": "infinite",
            "name()": "infinite",
            "ownerOf(uint256)": "2667",
            "pause()": "infinite",
            "paused()": "2420",
            "renounceMinter()": "infinite",
            "renouncePauser()": "infinite",
            "renounceRole(bytes32,address)": "infinite",
            "reveal(uint256)": "infinite",
            "revokeRole(bytes32,address)": "infinite",
            "safeTransferFrom(address,address,uint256)": "infinite",
            "safeTransferFrom(address,address,uint256,bytes)": "infinite",
            "setApprovalForAll(address,bool)": "26816",
            "supportsInterface(bytes4)": "infinite",
            "symbol()": "infinite",
            "tokenByIndex(uint256)": "6760",
            "tokenOfOwnerByIndex(address,uint256)": "5064",
            "tokenURI(uint256)": "infinite",
            "totalSupply()": "2327",
            "transferFrom(address,address,uint256)": "infinite",
            "unpause()": "infinite"
        },
        "internal": {
            "_beforeTokenTransfer(address,address,uint256)": "infinite",
            "_burn(uint256)": "infinite",
            "_setTokenRevealableAt(uint256,uint256)": "infinite",
            "_setTokenRevealedURI(uint256,string memory)": "infinite"
        }
    }
}